:100000000C949F000C94C7000C94C7000C94C7007C
:100010000C94C7000C94C7000C94C7000C94C70044
:100020000C94C7000C94C7000C94C7000C94C70034
:100030000C94C7000C94C7000C94C7000C94C70024
:100040000C9428080C94C7000C9494050C94C605D5
:100050000C94C7000C94C7000C94C7000C94C70004
:100060000C94C7000C94C70007634236B79BD8A70F
:100070001A39685618AEBAAB558C1D3CB7CC5763CD
:10008000BD6DEDFD753EF6177231BF000000803F7B
:1000900008000000BE922449123EABAAAA2ABECD97
:1000A000CCCC4C3E00000080BEABAAAAAA3E000009
:1000B0000000BF000000803F000000000008417801
:1000C000D3BB4387D1133D190E3CC3BD4282AD2B38
:1000D0003E68EC8276BED98FE1A93E4C80EFFFBE30
:1000E00001C4FF7F3F000000000000000008000284
:1000F00001000003040700000000000000000102EE
:1001000004081020408001020408102001020408A5
:100110001020040404040404040402020202020283
:1001200003030303030300000000250028002B0045
:1001300000000000240027002A008B02F60511248D
:100140001FBECFEFD8E0DEBFCDBF11E0A0E0B1E031
:10015000ECECFAE102C005900D92AA33B107D9F791
:1001600022E0AAE3B1E001C01D92A630B207E1F798
:1001700011E0CEE3D1E004C02297FE010E94DC0929
:10018000CA33D107C9F70E9419080C94640D0C9466
:10019000000061E0809104010E94480961E08091C3
:1001A00002010E94480961E0809100010E94480913
:1001B00026E040E855E260E070E080E691E00E94D1
:1001C000320520E042E060E188E491E00C946803AD
:1001D0004F925F926F927F928F929F92AF92BF9257
:1001E000CF92DF92EF92FF92CF93DF9300D000D0B7
:1001F000CDB7DEB72B013C01F42E20913C013091AC
:100200003D0140913E0150913F010E94450A8823E3
:1002100009F462C06F2D70E080E090E00E94E20A75
:100220009B01AC0160E070E080E291E40E94FB0B76
:1002300069837A838B839C839B01AC01C301B201E8
:100240000E94980B4B015C0120E030E0A9010E9464
:10025000940B20E030E040E05FE387FD05C0C5017E
:10026000B4010E94E10904C0C501B4010E94E00983
:100270000E94B10A0E94E40A6B017C019B01AC015F
:10028000C501B4010E94E0090E94B10A6530710500
:1002900051F420E030E040E85FE3C701B6010E947E
:1002A000E1096B017C0140923C0150923D0160925A
:1002B0003E0170923F0129813A814B815C81C701E7
:1002C000B6010E94490A6B017C010E94B10A709339
:1002D0003B0160933A010CC060913A0170913B017F
:1002E000882777FD8095982F0E94E40A6B017C0196
:1002F000B601C7010F900F900F900F90DF91CF9133
:10030000FF90EF90DF90CF90BF90AF909F908F9035
:100310007F906F905F904F900895CF92DF92EF9211
:10032000FF928EE00E940209BC01882777FD80952C
:10033000982F0E94E40A20E030E040EA50E40E9456
:10034000980B20E030E040E85AE30E94980B20E050
:1003500030E040E05FE30E94E00920E030E048EC5C
:1003600052E40E94980B40E00E94E8006B017C017F
:1003700041E060E088E491E00E944E0367E071E0B4
:1003800088E491E00E94770641E063E088E491E030
:100390000E944E0322E030E0B701A60188E491E01C
:1003A0000E941608C701B6010E94B10A7093470166
:1003B0006093460168EE73E080E090E00E9495084B
:1003C000809144019091450101969093450180935D
:1003D0004401CC9789F488E491E00E94470380911E
:1003E0004201909143010196909343018093420111
:1003F0001092450110924401809142019091430175
:10040000CC9789F488E491E00E94470380914001F1
:100410009091410101969093410180934001109287
:10042000430110924201809140019091410148970F
:1004300041F488E491E00E94470310924101109238
:10044000400140E060E088E491E00E944E036AE0F1
:1004500071E088E491E00E9477066091400170911C
:100460004101161617063CF44AE050E088E491E09A
:100470000E94230708C0672B31F461E171E088E432
:1004800091E00E94770668E071E088E491E00E94C4
:1004900077066091420170914301161617063CF4ED
:1004A0004AE050E088E491E00E94230708C0672BEF
:1004B00031F461E171E088E491E00E94770668E040
:1004C00071E088E491E00E947706609144017091A8
:1004D00045011616170654F44AE050E088E491E00E
:1004E000FF90EF90DF90CF900C9423078091400114
:1004F00090914101892B51F461E171E088E491E030
:10050000FF90EF90DF90CF900C947706FF90EF90E4
:10051000DF90CF900895CF92EF920F9382E0C82E94
:1005200093E0E92E04E025E04BE06CE088E491E004
:100530000E9423040F91EF90CF900895CF93DF9303
:10054000EC0160E08E810E94810981E090E00E94D0
:10055000BD0861E08E810E94810981E090E00E94E7
:10056000BD0860E08E810E94810984E690E0DF9101
:10057000CF910C94BD08CF92DF92EF92FF920F9330
:100580001F93CF93DF937C01C0E0D0E0C62ED12C27
:1005900087010C0F1D1F61E0F80187810E94480947
:1005A000B6010C2E02C0759567950A94E2F761704A
:1005B000F80187810E9481092196C430D10541F755
:1005C000C701DF91CF911F910F91FF90EF90DF90C6
:1005D000CF900C949E02CF92DF92EF92FF920F93F6
:1005E0001F93CF93DF937C01C0E0D0E0C62ED12CC7
:1005F00087010C0F1D1F61E0F80187810E944809E7
:10060000B6010C2E02C0759567950A94E2F76170E9
:10061000F80187810E9481092196C830D10541F7F0
:10062000C701DF91CF911F910F91FF90EF90DF9065
:10063000CF900C949E021F93CF93DF93EC01162F63
:10064000642F8C810E9481098D818F3F19F060E0B9
:100650000E9481098F85612F84FF06C0CE01DF9142
:10066000CF911F910C94EB0270E084E07595679533
:100670008A95E1F7CE010E94BB02612FCE01DF9186
:10068000CF911F910C94BB0240E00C941B0361E0DE
:100690000E94440380ED97E00C94BD08443008F0BC
:1006A00043E0FC012389421710F04FEF420FFC0199
:1006B000E40FF11D2489260F2068622F0C94440357
:1006C000FC016089262F2460208B6C600C9444030D
:1006D000CF93DF93EC01423018F08F8588608F87CD
:1006E0004B8B1C8A80E48D8B6E8B70E0605C7F4F3F
:1006F0006F8B222329F0413019F48F8584608F8716
:1007000080E593EC0E94BD0860E08C810E94810925
:1007100060E08E810E9481098D818F3F19F060E039
:100720000E9481096F8564FD1DC063E0CE010E94B7
:10073000BB0284E991E10E94BD0863E0CE010E9402
:10074000BB0284E991E10E94BD0863E0CE010E94F2
:10075000BB0286E990E00E94BD0862E0CE010E94E3
:10076000BB0216C06062CE010E94440384E991E19D
:100770000E94BD086F856062CE010E94440386E935
:1007800090E00E94BD086F856062CE010E94440324
:100790006F856062CE010E94440384E0888BCE01A5
:1007A0000E946003CE010E94470382E0898B66E0CD
:1007B000CE01DF91CF910C9444036F927F928F9280
:1007C000AF92CF92EF920F931F93CF93DF93CDB75A
:1007D000DEB73C01162F842F5D854E853F859889B5
:1007E000F301848325830683E782C086A1868286FF
:1007F000538744873587968761E00E944809F30153
:1008000085818F3F19F061E00E94480961E0F301A2
:1008100086810E944809112319F0F301178603C04D
:1008200080E1F301878720E041E060E1C301DF91CF
:10083000CF911F910F91EF90CF90AF908F907F90BD
:100840006F900C9468038F92AF92CF92EF920F93B8
:10085000DC0113961C921E921297E8E1F1E0ED93F1
:10086000FC931F921F921F921F928C2CAE2CC02EB5
:10087000E22E042F2FEF462F61E00E94DD030F9040
:100880000F900F900F900F91EF90CF90AF908F90AF
:10089000089541E00E941B0381E090E00895FC016F
:1008A000818D228D90E0805C9F4F821B91098F7318
:1008B00099270895FC01918D828D981731F0828DD2
:1008C000E80FF11D858D90E008958FEF9FEF08955B
:1008D000FC01918D828D981761F0828DDF01A80F48
:1008E000B11D5D968C91928D9F5F9F73928F90E06A
:1008F00008958FEF9FEF08958CEE95E0892B49F0D6
:1009000080E090E0892B29F00E94EC0581110C9485
:1009100000000895FC01848DDF01A80FB11DA35ACA
:10092000BF4F2C91848D90E001968F739927848F0F
:10093000A689B7892C93A089B1898C9180648C9306
:10094000938D848D981306C00288F389E02D8081F1
:100950008F7D80830895CF93DF93EC01888D88236A
:10096000C9F0EA89FB89808185FD05C0A889B9891C
:100970008C9186FD0FC00FB607FCF5CF808185FFF7
:10098000F2CFA889B9898C9185FFEDCFCE010E9465
:100990008A04E7CFDF91CF910895CF92DF92FF9243
:1009A0000F931F93CF93DF931F92CDB7DEB76C01E8
:1009B000DC015B969C915B975C968C915C9798139D
:1009C00007C05096ED91FC915197808185FD32C012
:1009D000F601038D10E00F5F1F4F0F731127F02EEC
:1009E000F601848DF81211C00FB607FCF9CFD601BD
:1009F0005096ED91FC915197808185FFF1CFC60112
:100A000069830E948A046981EBCF838DE80FF11D11
:100A1000E35AFF4F6083D6015B960C935B97529627
:100A2000ED91FC91539780818062808381E058969C
:100A30008C930DC0D6015696ED91FC91579760832B
:100A40005096ED91FC91519780818064808381E084
:100A500090E00F90DF91CF911F910F91FF90DF9069
:100A6000CF900895BF92CF92DF92EF92FF92CF93F3
:100A7000DF93EC016A017B01B22EE889F98982E0FB
:100A80008083411581EE580761057105A1F060E092
:100A900079E08DE390E0A70196010E94B80921500A
:100AA00031094109510956954795379527952115E3
:100AB00080E1380798F0E889F989108260E874E8E5
:100AC0008EE190E0A70196010E94B80921503109FA
:100AD000410951095695479537952795EC85FD8530
:100AE0003083EE85FF852083188EEC89FD89B082E6
:100AF000EA89FB89808180618083EA89FB89808122
:100B000088608083EA89FB89808180688083EA89A4
:100B1000FB8980818F7D8083DF91CF91FF90EF9063
:100B2000DF90CF90BF9008951F920F920FB60F9253
:100B300011242F938F939F93EF93FF93E091700174
:100B4000F09171018081E0917601F091770182FD51
:100B500012C09081809179018F5F8F7320917A010B
:100B6000821751F0E0917901F0E0E05AFE4F958F45
:100B70008093790101C08081FF91EF919F918F91C6
:100B80002F910F900FBE0F901F9018951F920F92EC
:100B90000FB60F9211242F933F934F935F936F9350
:100BA0007F938F939F93AF93BF93EF93FF9380E6D1
:100BB00091E00E948A04FF91EF91BF91AF919F91C4
:100BC0008F917F916F915F914F913F912F910F90F6
:100BD0000FBE0F901F90189580E691E00E944F0481
:100BE00021E0892B09F420E0822F089510926301FF
:100BF0001092620188EE93E0A0E0B0E0809364017F
:100C000090936501A0936601B093670180E291E043
:100C1000909361018093600185EC90E090936D0169
:100C200080936C0184EC90E090936F0180936E014F
:100C300080EC90E0909371018093700181EC90E0E2
:100C4000909373018093720182EC90E09093750110
:100C50008093740186EC90E0909377018093760105
:100C60001092790110927A0110927B0110927C010E
:100C70000895CF92DF92EF92FF920F931F93CF933D
:100C8000DF936C017A01EB01E60EF71E00E010E045
:100C9000CE15DF0561F06991D601ED91FC910190CF
:100CA000F081E02DC6010995080F191FF1CFC80189
:100CB000DF91CF911F910F91FF90EF90DF90CF9038
:100CC00008956115710581F0DB010D900020E9F7B1
:100CD000AD0141505109461B570BDC01ED91FC91D0
:100CE0000280F381E02D099480E090E008950C9457
:100CF0006106DC01ED91FC910190F081E02D0994F9
:100D00008F929F92AF92BF92CF92DF92EF92FF921B
:100D10000F931F93CF93DF93CDB7DEB7A1970FB695
:100D2000F894DEBF0FBECDBF7C01C42EE52FCB01F2
:100D3000D22E19A221E02D1510F02AE0D22E8E011C
:100D40000F5D1F4F8D2C912CA12CB12C6C2D7E2F63
:100D5000A50194010E94B8098C2DD29E80191124FE
:100D6000015011098A3014F4805D01C0895CF801DA
:100D70008083211531054105510521F0C22EE32F55
:100D8000CA01E4CFB801C7010E946106A1960FB65F
:100D9000F894DEBF0FBECDBFDF91CF911F910F91B1
:100DA000FF90EF90DF90CF90BF90AF909F908F908B
:100DB0000895CF92DF92EF92FF920F931F93CF93FC
:100DC000DF93EC016A017B012115310579F4E8819B
:100DD000F9810190F081E02D642FDF91CF911F9177
:100DE0000F91FF90EF90DF90CF9009942A3031055A
:100DF000E9F477FF1AC06DE20E9479068C0144275E
:100E00005527BA014C195D096E097F092AE0CE0108
:100E10000E948006800F911FDF91CF911F910F914B
:100E2000FF90EF90DF90CF9008952AE0B701A601E0
:100E3000CE01DF91CF911F910F91FF90EF90DF9046
:100E4000CF900C9480069A01AB01662757FD609500
:100E5000762F0C94D9064F925F926F927F928F9269
:100E60009F92AF92BF92CF92DF92EF92FF920F9339
:100E70001F93CF93DF93EC016A017B01B22E9A019D
:100E8000AB01C701B6010E94470C882319F06CE240
:100E900071E027C026013701E89477F82FEF3FEF84
:100EA0004FE75FE7C301B2010E94470C81110DC0FB
:100EB0002FEF3FEF4FE75FE7C301B2010E94450A02
:100EC00018161CF460E371E00CC02FEF3FEF4FE702
:100ED0005FE4C701B6010E94940B1816ACF464E3FA
:100EE00071E0CE01DF91CF911F910F91FF90EF90B4
:100EF000DF90CF90BF90AF909F908F907F906F903A
:100F00005F904F900C9461062FEF3FEF4FE75FEC3F
:100F1000C701B6010E94450A87FDE1CF20E030E01D
:100F2000A901C701B6010E94450A87FF0AC06DE208
:100F3000CE010E9479068C01F7FAF094F7F8F0944C
:100F400002C000E010E0A12C60E070E080E09FE3D0
:100F5000AB1441F020E030E040E251E40E94490A45
:100F6000A394F6CF9B01AC01C701B6010E94E10931
:100F70006B017C010E94B60A2B013C010E94E20A2F
:100F80009B01AC01C701B6010E94E0096B017C0125
:100F90002AE0B301A201CE010E948006080F191FAA
:100FA000BB2039F068E371E0CE010E946106080FB2
:100FB000191F7B2C772041F120E030E040E251E422
:100FC000C701B6010E94980B6B017C010E94B10A17
:100FD0004B01AA2497FCA094BA2C2AE030E0B5017A
:100FE000A401CE010E94D906080F191FC501B40142
:100FF0000E94E40A9B01AC01C701B6010E94E0090E
:101000006B017C017A94D6CFC801DF91CF911F91FB
:101010000F91FF90EF90DF90CF90BF90AF909F9097
:101020008F907F906F905F904F9008950C942B0756
:1010300008950E94C7080E9418080E94C900CCE7C2
:10104000D4E00E948D012097E1F30E947C04F9CF47
:101050001F920F920FB60F9211242F933F938F93ED
:101060009F93AF93BF938091FE019091FF01A09158
:101070000002B09101023091FD0123E0230F2D37D2
:1010800020F40196A11DB11D05C026E8230F02968C
:10109000A11DB11D2093FD018093FE019093FF01DE
:1010A000A0930002B093010280910202909103028A
:1010B000A0910402B09105020196A11DB11D80937B
:1010C000020290930302A0930402B0930502BF9121
:1010D000AF919F918F913F912F910F900FBE0F90E5
:1010E0001F9018953FB7F8948091020290910302E7
:1010F000A0910402B091050226B5A89B05C02F3F20
:1011000019F00196A11DB11D3FBF6627782F892FC9
:101110009A2F620F711D811D911D42E0660F771F8E
:10112000881F991F4A95D1F70895CF92DF92EF92C9
:10113000FF92CF93DF936B017C010E947208EB0159
:10114000C114D104E104F10489F00E94B7090E949E
:1011500072086C1B7D0B683E734090F381E0C81AE7
:10116000D108E108F108C851DC4FEACFDF91CF91F7
:10117000FF90EF90DF90CF900895019739F0880F9E
:10118000991F880F991F02970197F1F70895789496
:1011900084B5826084BD84B5816084BD85B582607C
:1011A00085BD85B5816085BDEEE6F0E0808181601A
:1011B0008083E1E8F0E0108280818260808380811A
:1011C00081608083E0E8F0E0808181608083E1EBF2
:1011D000F0E0808184608083E0EBF0E080818160DA
:1011E0008083EAE7F0E08081846080838081826090
:1011F0008083808181608083808180688083109279
:10120000C10008958E3008F08E508770209106013D
:1012100090E4299F90011124822B80937C0080917F
:101220007A00806480937A0080917A0086FDFCCFFA
:10123000809178002091790090E0922B089583307E
:1012400081F028F4813099F08230A1F00895873040
:10125000A9F08830B9F08430D1F4809180008F7D7E
:1012600003C0809180008F7780938000089584B5BB
:101270008F7702C084B58F7D84BD08958091B000C2
:101280008F7703C08091B0008F7D8093B000089568
:10129000CF93DF9390E0FC01E250FF4F2491FC01DB
:1012A000EE5EFE4F8491882349F190E0880F991FEC
:1012B000FC01E05DFE4FA591B4918A5D9E4FFC015B
:1012C000C591D4919FB7611108C0F8948C91209575
:1012D00082238C93888182230AC0623051F4F8946F
:1012E0008C91322F309583238C938881822B888335
:1012F00004C0F8948C91822B8C939FBFDF91CF9187
:1013000008950F931F93CF93DF931F92CDB7DEB74E
:10131000282F30E0F901E651FF4F8491F901E250A6
:10132000FF4F1491F901EE5EFE4F04910023C9F0C6
:10133000882321F069830E941F096981E02FF0E072
:10134000EE0FFF1FEA5DFE4FA591B4919FB7F89491
:101350008C91611103C01095812301C0812B8C9366
:101360009FBF0F90DF91CF911F910F910895089526
:10137000A1E21A2EAA1BBB1BFD010DC0AA1FBB1F99
:10138000EE1FFF1FA217B307E407F50720F0A21B0B
:10139000B30BE40BF50B661F771F881F991F1A9478
:1013A00069F760957095809590959B01AC01BD01A2
:1013B000CF010895EE0FFF1F0590F491E02D0994E1
:1013C0005058BB27AA270ED075C166D130F06BD11B
:1013D00020F031F49F3F11F41EF45BC10EF4E09550
:1013E000E7FB51C1E92F77D180F3BA176207730782
:1013F0008407950718F071F49EF58FC10EF4E095FF
:101400000B2EBA2FA02D0B01B90190010C01CA01BE
:10141000A0011124FF27591B99F0593F50F4503E69
:1014200068F11A16F040A22F232F342F4427585F5B
:10143000F3CF469537952795A795F0405395C9F773
:101440007EF41F16BA0B620B730B840BBAF091502B
:10145000A1F0FF0FBB1F661F771F881FC2F70EC0CA
:10146000BA0F621F731F841F48F48795779567959D
:10147000B795F7959E3F08F0B3CF9395880F08F086
:101480009927EE0F979587950895D9D008F481E0B4
:1014900008950CD00FC107D140F0FED030F021F4F8
:1014A0005F3F19F0F0C0511139C1F3C014D198F366
:1014B0009923C9F35523B1F3951B550BBB27AA27D5
:1014C00062177307840738F09F5F5F4F220F331F47
:1014D000441FAA1FA9F333D00E2E3AF0E0E830D013
:1014E00091505040E695001CCAF729D0FE2F27D016
:1014F000660F771F881FBB1F261737074807AB07E4
:10150000B0E809F0BB0B802DBF01FF2793585F4F58
:101510002AF09E3F510568F0B6C000C15F3FECF372
:10152000983EDCF3869577956795B795F7959F5F1D
:10153000C9F7880F911D9695879597F90895E1E071
:10154000660F771F881FBB1F621773078407BA07D0
:1015500020F0621B730B840BBA0BEE1F88F7E0952B
:10156000089504D06894B111D9C00895BCD088F012
:101570009F5790F0B92F9927B751A0F0D1F0660F7F
:10158000771F881F991F1AF0BA95C9F712C0B1309A
:1015900081F0C3D0B1E00895C0C0672F782F8827AD
:1015A000B85F39F0B93FCCF3869577956795B395D9
:1015B000D9F73EF490958095709561957F4F8F4F48
:1015C0009F4F0895E89409C097FB3EF4909580954D
:1015D000709561957F4F8F4F9F4F9923A9F0F92FF9
:1015E00096E9BB279395F695879577956795B79577
:1015F000F111F8CFFAF4BB0F11F460FF1BC06F5F5D
:101600007F4F8F4F9F4F16C0882311F096E911C06E
:10161000772321F09EE8872F762F05C0662371F08F
:1016200096E8862F70E060E02AF09A95660F771FA3
:10163000881FDAF7880F9695879597F90895990F7F
:101640000008550FAA0BE0E8FEEF16161706E8078C
:10165000F907C0F012161306E407F50798F0621BAD
:10166000730B840B950B39F40A2661F0232B242B82
:10167000252B21F408950A2609F4A140A6958FEFA1
:10168000811D811D089597F99F6780E870E060E0F3
:1016900008959FEF80EC089500240A94161617060B
:1016A00018060906089500240A9412161306140653
:1016B00005060895092E0394000C11F4882352F0B6
:1016C000BB0F40F4BF2B11F460FF04C06F5F7F4F6E
:1016D0008F4F9F4F089557FD9058440F551F59F055
:1016E0005F3F71F04795880F97FB991F61F09F3F0F
:1016F00079F087950895121613061406551FF2CF38
:101700004695F1DF08C0161617061806991FF1CF87
:1017100086957105610508940895E894BB276627AE
:101720007727CB0197F908958ADF08F48FEF0895A2
:101730000BD0C0CFB1DF28F0B6DF18F0952309F049
:10174000A2CFA7CF1124EACFC6DFA0F3959FD1F394
:10175000950F50E0551F629FF001729FBB27F00D5F
:10176000B11D639FAA27F00DB11DAA1F649F6627B4
:10177000B00DA11D661F829F2227B00DA11D621F03
:10178000739FB00DA11D621F839FA00D611D221FBD
:10179000749F3327A00D611D231F849F600D211DA1
:1017A000822F762F6A2F11249F5750408AF0E1F044
:1017B00088234AF0EE0FFF1FBB1F661F771F881F8D
:1017C00091505040A9F79E3F510570F05CCFA6CFD5
:1017D0005F3FECF3983EDCF3869577956795B79578
:1017E000F795E7959F5FC1F7FE2B880F911D9695A2
:1017F000879597F90895FA01EE0FFF1F309621059E
:10180000310599F16115710561F48038BFE39B07DB
:1018100049F168949038810561F08038BFEF9B07EB
:1018200041F0992342F5FF3FE1053105210511F112
:10183000E8940894E795D901AA2329F4AB2FBE2F89
:10184000F85FD0F310C0FF5F70F4A695E0F7F739AA
:1018500050F019F0FF3A38F49F779F930CD00F9017
:1018600007FC905808953EF014CF60E070E080E8E7
:101870009FE308954FE79F775F934F933F932F9395
:10188000A2D02F913F914F915F9152DF09C0D7DED7
:10189000880B990B089519F40EF0F5CE3ECFF9CED2
:1018A00022DFC8F39638C0F707F80F92E8942BE3CD
:1018B0003AEA48EB5FE74ADF0F920F920F924DB77B
:1018C0005EB70F92C0D0E8E6F0E016D04F915F917E
:1018D000EF91FF91E595EE1FFF1F49F0FE57E0687D
:1018E0004427EE0F441FFA95E1F74195550B32D08E
:1018F0000F9007FE26C00895DF93CF931F930F9399
:10190000FF92EF92DF927B018C01689405C0DA2E82
:10191000EF011ADFFE01E894A591259135914591DB
:101920005591AEF3EF015EDDFE019701A801DA9457
:1019300079F7DF90EF90FF900F911F91CF91DF919A
:1019400008959B01AC0160E070E080E89FE3A1CDC9
:101950009ACEACC0C8DEE8F39923D9F3940F511D99
:10196000BBF39150504094F059F0882332F0660F49
:10197000771F881F91505040C1F79E3F510544F793
:10198000880F911D9695879597F908955F3FACF064
:10199000983E9CF0BB27869577956795B79508F498
:1019A000B1609395C1F7BB0F58F711F460FFE8CF12
:1019B0006F5F7F4F8F4F9F4FE3CFB0CE0EF076C05B
:1019C00068CE689460CE8FDEC8F39923D1F3C6F356
:1019D000DF93CF931F930F93FF92C92FDD278823A7
:1019E0002AF02197660F771F881FDAF720E030E092
:1019F00040E85FEB9FE3883920F0803E30F021968D
:101A00008F77DFDCE0E9F0E003C0DBDCEDEBF0E05A
:101A100073DF8B01BE01EC01FB2E6F5771097595C9
:101A2000771F880B990BD0DD28E132E741E35FE3B4
:101A30008BDEAF2D9801AE01FF900F911F91CF91DA
:101A4000DF91D0DC37CEFA01DC01AA0FBB1F9B016E
:101A5000AC01BF5728F422273327442750781FC0F2
:101A6000B75188F4AB2F0024469537952795011C74
:101A7000A395D2F3002069F0220F331F441FB395C2
:101A8000DAF30DD09DCC61307105A0E88A07B94624
:101A900030F49B01AC016627772788279078309631
:101AA00021F0208331834283538308959F3F31F097
:101AB000915020F4879577956795B795880F911D7C
:0C1AC0009695879597F90895F894FFCF4C
:101ACC00080009000A0001543A005A6569743A206A
:101ADC00003030000000000049043906000000000E
:101AEC00CD0439064F0468045A04AB046E616E00D1
:0A1AFC00696E66006F7666002E002A
:00000001FF
